:020000040800F2
:10000000A8260020C5020008B73300085D2F0008AD
:10001000B5330008BD1100080D3D000800000000C8
:10002000000000000000000000000000F9010008CE
:10003000F7110008000000003D020008AD3700087D
:10004000DF020008DF020008DF020008DF0200080C
:10005000DF020008DF020008DF020008DF020008FC
:10006000DF020008DF020008DF020008DF020008EC
:10007000DF020008DF020008DF020008C1110008EB
:10008000DF020008DF020008DF020008DF020008CC
:10009000DF020008DF020008DF020008DF020008BC
:1000A000DF02000839380008DF020008DF0200081C
:1000B000DF020008DF020008DF020008DF0200089C
:1000C000DF020008DF020008DF020008DF0200088C
:1000D000DF020008F53C0008DF020008013D0008CF
:1000E000F9110008DF020008DF020008DF02000843
:1000F000DF020008DF020008DF020008DF0200085C
:10010000DF020008DF020008DF020008DF0200084B
:10011000DF020008DF020008DF020008DF0200083B
:10012000DF020008DF020008DF020008DF0200082B
:1001300000F002F800F050F80AA090E8000C8244A9
:100140008344AAF10107DA4501D100F045F8AFF286
:10015000090EBAE80F0013F0010F18BFFB1A43F0A5
:1001600001031847CC510000EC510000103A24BFA5
:1001700078C878C1FAD8520724BF30C830C144BF0C
:1001800004680C607047000000230024002500264E
:10019000103A28BF78C1FBD8520728BF30C148BFEA
:1001A0000B607047642900F03F81782900F0788166
:1001B000732900F06E85002070471FB500F039FBF1
:1001C00000F0F0FF04000020002104F011FF401CAB
:1001D00060601FBD10B510BD00F0A8FF1146FFF70D
:1001E000ECFF03F073FF00F0CFFF03B4FFF7F2FF63
:1001F00003BC00F0DDFF0000224B19680868B0E87E
:10020000F00F80F30988BFF36F8F4FF0000080F389
:1002100011884EF00D0E704700000000064800687F
:10022000006880F3088862B661B6BFF34F8FBFF3F2
:100230006F8F00DF00BF00BF08ED00E0EFF3098023
:10024000BFF36F8F0F4B1A6820E9F00F106008B5ED
:100250004FF0500080F31188BFF34F8FBFF36F8FC3
:1002600004F0EAFC4FF0000080F31188BDE808407C
:1002700019680868B0E8F00F80F30988BFF36F8F42
:10028000704700BF3C000020EFF30580704700007E
:100290000B49D1F800C04A685CF8043B1068184468
:1002A00042F8040B8C4528BFA1F1DC0C8A4228BF20
:1002B000A1F1DC02C1F800C04A6020F000407047A4
:1002C000402000200948804709480047FEE7FEE734
:1002D000FEE7FEE7FEE7FEE7FEE7FEE7FEE7FEE7F6
:1002E00004480549054A064B7047000035380008A8
:1002F00031010008A8200020A8260020A822002004
:10030000A8220020B2F120030AD5C2F1200320FA6E
:1003100002F001FA03F321FA02F140EA0300704708
:1003200021FA03F04FF00001704700000FB41CB534
:10033000074B06AA7B4469460090059800F077FCBD
:100340000020694600F086FC1CBC5DF814FB000030
:100350001D0900000FB41CB50C0007AA009001D0C5
:100360002044401E074B7B4469460190069800F0EC
:100370005EFC002C03D06946002000F06BFC1CBC26
:100380005DF814FBF508000070B504468569006847
:10039000C10601D5302600E02026C00707D070BD79
:1003A000D4E9012130469047206A401C20626D1E2E
:1003B000F6D570BD70B5044685690078C00707D1D1
:1003C00070BDD4E9012120209047206A401C2062A2
:1003D0006D1EF6D570BD70B50C460546012A05D0D8
:1003E0002878800600D5EA69002302E0012305E0B1
:1003F0005B1C934202D2E05C0028F9D1A869E618A0
:10040000C01AA861286A184428622846FFF7BCFF72
:1004100004E0D5E9012114F8010B9047B442F8D368
:100420002846FFF7C7FF70BD2DE9F04106460024BE
:1004300010687529314616A510D0AFF3008000284A
:1004400002DA404213A507E031688A0701D512A5F8
:1004500002E0490704D511A5012401E0AFF30080B3
:1004600000210A2206F1240709E0B0FBF2FCB0FBF0
:10047000F2F302FB1C00303078541846491C002867
:10048000F3D123462A463046BDE8F04100F071BB67
:10049000000000002D0000002B00000020000000E4
:1004A00070B504460D4621461068AFF300802188E0
:1004B000090502D50F4A7A4402E00E4A7A440E3208
:1004C000002104F1240305E000F00F060009965D09
:1004D0005E54491C0028F7D120780023000704D57A
:1004E000702D02D009B1022311322046BDE87040C0
:1004F00000F03FBB104E00002DE9F05F8946044636
:100500004FF0000ADFF874B1FB44C0F820A0204689
:10051000E1688847002874D0252806D0D4E9012155
:100520009047206A401C2062F1E700265F46204683
:10053000E16888472028054607DB312D05D2781968
:1005400010F8200C08B10643F1E7B00701D526F0FA
:100550000406C4F81CA00027C4F818A02A2D09D04E
:10056000284603F0E4FB38B304EB8708303DC8F8B5
:10057000185019E059F8041B204604EB87029161DA
:10058000E1688847012F054618D1E069002820DA84
:1005900026F020061DE0D8F8180000EB800005EBDF
:1005A00040003038C8F818002046E1688847054602
:1005B00003F0BDFB0028EED1012F0AD02E2D08D16B
:1005C0002046E16888477F1C0546022F46F020063A
:1005D000C4DBA069002803DA404246F00106A061AE
:1005E000F00701D026F010066C2D0BD0682D09D035
:1005F0004C2D39D06A2D35D0742D35D07A2D33D08D
:1006000016E038E0E1682F4620468847B8420546A4
:1006100009D16C2F26D04FF48060E1680643204654
:100620008847054604E06C2F1AD04FF480700643CB
:100630000DB3A5F14100192802D8203546F4006613
:100640004A462946204626604E46FFF7ABFD80B15C
:1006500001280BD0F61D26F0070000F1080956E727
:100660004020E4E78020D8E70020D6E706F104091F
:100670004DE7284652E7206ABDE8F09FE64D0000AE
:100680000FB400B58DB010A9099000910B904FF0F8
:10069000FF300A9000200C900648784406900648E7
:1006A00078446A4607900F9909A800F00BFB0DB03B
:1006B0005DF814FB470600005F0600002DE9FF5FB0
:1006C0001D464FF0FF3B91464FF000085F46D5E9CD
:1006D0000146A96901987F1C8847296A8246884794
:1006E0000028F6D1BAF1FF3F0CD0002E24F4C064EC
:1006F00019DD600614D5BAF12B0F09D0BAF12D0F10
:100700000ED103E0584604B0BDE8F09F44F4806485
:10071000A96901987F1C8847761E8246002E02DD5B
:10072000BAF1300F03D0B9F1000F26D032E0A96939
:10073000761E01987F1C44F400748847002E824680
:1007400005DDBAF1780F06D0BAF1580F03D0B9F130
:10075000000F10D01EE0B9F1000F02D0B9F1100F58
:1007600018D1A969761E01987F1C24F4007488476B
:100770008246102002E0082000E00A20814609E0BD
:10078000A96908FB0908761E01987F1C44F40074CF
:1007900088478246002E05DD4946504600F07DFA26
:1007A0000028EDDAE96901988847A00502D46FF0C6
:1007B0000100A8E7E00725D1600613D5600502D542
:1007C000C8F1000000E0404629680A1D2A60096857
:1007D000220501D5087015E0220701D5088011E037
:1007E00008600FE02868011D29600068210502D516
:1007F00080F8008006E0210702D5A0F8008001E023
:10080000C0F8008038467EE70B4910B5A1F17C02A4
:100810000A4CC2E93712372106E000EB104342F8D8
:100820002130074B00FB03400B1EA1F10101F4DC5A
:1008300010BD0120E8E70000E01F0020E119D666A6
:10084000CD0D0100014A00F06DBA00000C0100203E
:1008500030B505460B462A4613F8014B12F8010B3A
:1008600008B1A042F8D01CB1002802D06D1CF1E7FD
:10087000284630BD40EA0103024630B59B0710D13F
:100880004FF0013400E008C208C91D1B9D4315EA62
:10089000C41FF8D013F0FF0102F8011B0DD01B0A92
:1008A000F8E711F8013B002B02F8013B05D011F8E5
:1008B000013B002B02F8013BF3D130BD10B5431CC6
:1008C00002E010F8011B71B18107FAD14FF001323B
:1008D00002C88C1A8C4314EAC211F9D0C01A0A0655
:1008E00003D0C01E10BDC01A10BD0A0401D0801E66
:1008F00010BD0902FCD0401E10BD40EA010370B5D6
:100900009B072ED14FF00136042A2AD308C810C9FC
:100910009D1B9D43121F15EAC61517D0D8B2E1B230
:10092000401A50EA056110D198B2A1B2401A50EABB
:1009300005410AD123F07F4024F07F41401A50EA5C
:10094000052102D1180EA0EB146070BDA342DBD0CC
:1009500018BA21BA884201D9012070BD4FF0FF308A
:1009600070BD0AB9002070BD10F8013B11F8014BB1
:1009700063B1A3420AD1521E08D010F8013B11F80E
:10098000014B1BB1A34201D1521EEDD1181B70BD0A
:1009900010B5203AC0F00B80B1E81850203AA0E81A
:1009A0001850B1E81850A0E81850BFF4F5AF5FEA4E
:1009B000027C24BFB1E81850A0E8185044BF18C901
:1009C00018C0BDE810405FEA827C24BF51F8043BA8
:1009D00040F8043B08BF7047D20728BF31F8023BFC
:1009E00048BF11F8012B28BF20F8023B48BF00F890
:1009F000012B704702F0FF0343EA032242EA02425E
:100A000000F002B84FF000020429C0F0128010F08C
:100A1000030C00F01B80CCF1040CBCF1020F18BFDA
:100A200000F8012BA8BF20F8022BA1EB0C0100F06D
:100A30000DB85FEAC17C24BF00F8012B00F8012B40
:100A400048BF00F8012B70474FF0000200B5134675
:100A500094469646203922BFA0E80C50A0E80C50DE
:100A6000B1F12001BFF4F7AF090728BFA0E80C508F
:100A700048BF0CC05DF804EB890028BF40F8042B88
:100A800008BF704748BF20F8022B11F0804F18BFF5
:100A900000F8012B704710B5044610F0030F08BF93
:100AA00011F0030F40F015804FF0013E121FC0F20D
:100AB0000E8051F8043BA3EB0E0C2CEA030C1CEA4D
:100AC000CE1C08BF40F8043BF0D0A1F1040102F1B4
:100AD0000402521E08DB11F8013B002B00F8013B19
:100AE000F7D11146FFF78EFF204610BD4FF0013CB5
:100AF00050F8042B51F8043B9A4221D1A2EB0C038D
:100B0000934313EACC1317D150F8042B51F8043B4C
:100B10009A4215D1A2EB0C03934313EACC130BD1E9
:100B200050F8042B51F8043B9A4209D1A2EB0C0374
:100B3000934313EACC13DBD04FF00000704700BFA3
:100B4000D01A01BAB1FA81F101F0180122FA01F0CC
:100B5000CB40C1F12001DBB2C0B2C01A2CFA01F3C4
:100B6000D11A914311EAC311E6D17047704770471B
:100B700070472DE9F0470D4699469246044600F12C
:100B800024080168880604D5E06921F0100121607D
:100B900000E00120A84201DD471B00E00027A16919
:100BA0007A1902EB0900081AA0612078C00602D465
:100BB0002046FFF7E9FB002608E0D4E901211AF8F6
:100BC00006009047206A401C761C20624E45F4DBEC
:100BD0002078C0060AD52046FFF7D6FB06E0D4E908
:100BE000012130209047206A401C2062381EA7F166
:100BF0000107F4DC07E0D4E9012118F8050090476B
:100C0000206A401C2062281EA5F10105F3DC204665
:100C1000FFF7D0FB2078000602D50220BDE8F08760
:100C20000120FBE701694A1C02610878704700B5A2
:100C30008FB0CDE901310021059105497944CDE915
:100C4000031011466846FFF757FC0FB000BD0000C7
:100C5000E5FFFFFF0A6802F8010B0A607047D1E95F
:100C600000239A4202D2531C0B601070704710B5DB
:100C7000436913B1AFF3008001E0FFF7ACFB012043
:100C800010BD127800F124010A7000224A7001227E
:100C9000EDE711684FF0FF32E9E73A2800D230382B
:100CA00020F02002412A01D3A2F13700884201D36B
:100CB0004FF0FF3070470000026811441378016064
:100CC00018467047D1600549794451610449794417
:100CD000116200211161114600F050B8EDFFFFFFD5
:100CE00097000000426842B1016811F8013B23B14E
:100CF000521EC0E90012184670470121C160881ECB
:100D0000704742685AB1C368016843B983688B422F
:100D100005D0491E521CC0E90012002070474FF058
:100D2000FF3070472DE9F04115460E46040002D110
:100D30002C6804B90BA4204600F0EAF9044420789A
:100D400070B127463146384600F0D2F90444207885
:100D500010B1002004F8010B38462C60BDE8F0818A
:100D60000027F9E70000000010B5044600F004FA7F
:100D70000068005D00F0010010BD00002DE9F34F98
:100D80004FF0000A0C4656468DB001200C9001F140
:100D90000C000B9062690B9801219047051E2DD025
:100DA000252D2CD0216A8847C0B162690B9801219A
:100DB0009047216A88470028F7D16269411E0B9845
:100DC000904700E0761CA1690D988847216A884702
:100DD0000028F7D1E1690D988847DBE7A1690D98F4
:100DE0008847A842074601D1761CD3E7E1690D98F0
:100DF00088477F1C02D1BAF1000F6FD06CE16269A5
:100E00000B9800273D46394690472A2804D162694D
:100E10000B98012190470125DFF8D08262690B9879
:100E200001219047A0F130010A290AD24745E5DCAB
:100E300007EB870100EB4107303FDFD445F0100599
:100E4000ECE7E90601D46FF000476C280AD04C2883
:100E500014D0682815D06A280DD074281CD07A28A0
:100E60001AD01DE062690B98012190476C2802D0CE
:100E700045F0040514E045F002050DE045F02005BD
:100E80000AE062690B9801219047682802D045F07A
:100E9000080505E045F4006562690B98012190475B
:100EA000C4E9015765283DD019DC58287AD00CDCFC
:100EB000452837D004DC252826D041289ED131E0B2
:100EC00046282FD0472899D12CE05B2877D061287D
:100ED00028D063287CD0642823D15AE0F7E06F281B
:100EE00048D008DC66281DD067281BD0692821D08F
:100EF0006E2816D127E0702845D0732868D0752851
:100F000047D078280DD14DE0A1690D988847252854
:100F100005463FF469AFE1690D9888476D1C3FF4C1
:100F20006AAFD9E00D9923466A466FF00100AFF32E
:100F30000080C6E045F0400023464FF000026060AC
:100F4000A80736D43EE0E8077FF447AF2068011DCC
:100F500021600068290501D506701BE7290701D526
:100F6000068017E7A90703D5F117C0E9006111E76B
:100F700006600FE745F0400023464FF0080260602E
:100F8000A80716D41EE040F60E0125EA01006060B5
:100F900016E045F0400023464FF00A026060A807C3
:100FA00007D40FE045F040006060A80708D523464D
:100FB00010220D996FF00100AFF3008081E007E08F
:100FC000102223460D996FF00100FFF777FB78E0C0
:100FD0004FF0000963284F46C8464B46CB4602D027
:100FE0005B2807D039E02079C00601D40120A06039
:100FF000012732E06269D4F80CB00B9801219047C8
:101000005E2807D14FF0010949466269D4F80CB057
:101010000B989047216939B900210A4603AB43F880
:101020002120491C0829FADBD8B3216949B308F10A
:10103000010862690B98012190475D28F4D1B9F14C
:10104000000F09D0002003A951F82020D24341F815
:101050002020401C0828F7DB03AB206900282079FA
:101060004FEA40701ED05B462246CDF80080CDE9A5
:1010700001970D9900286FF0010020DAAFF300808E
:101080001FE0C11703AA00EBD1614B1121F01F0132
:1010900002EB8302411A1368012088400343136066
:1010A000C7E719E00D99224600286FF0010000976C
:1010B00002DAAFF3008004E0AFF3008001E0AFF3A9
:1010C000008000280ADA401C06D10C9820B14FF0AD
:1010D000FF300FB0BDE8F08F5046FAE7E90701D1C5
:1010E0000AF1010A064400200C9053E6CCCCCC0C4B
:1010F00030B503461D781DB10A4603E0AC4201D16C
:10110000181A30BD12F8014B002CF7D15B1CF1E727
:1011100030B503461D783DB10A4612F8014B1CB1AB
:10112000AC42FAD15B1CF5E7181A30BD754600F0E9
:1011300035F8AE4605006946534620F0070085465F
:1011400018B020B5FFF7CCF8BDE820404FF00006FE
:101150004FF000074FF000084FF0000B21F007019F
:10116000AC46ACE8C009ACE8C009ACE8C009ACE8E2
:10117000C0098D467047000010B500F013F8001D3F
:1011800010BD00BF6D3E000010B50446AFF30080F7
:101190002046BDE81040FFF728B80000004870471F
:1011A0004820002000487047682000207047000059
:1011B00001491820ABBEFEE726000200FEE7000052
:1011C000014800F0BDB900004C02002030B590F895
:1011D00040500124AC40C56B6C6004686360436898
:1011E000102B036803D099600068C26030BD9A601C
:1011F0000068C16030BD704710B54FF4806000F0EA
:1012000007FC4FF4805000F003FCBDE810404FF4A1
:10121000004000F0FDBB72B6FEE70000064900206A
:10122000C8610648016941F004010161016941F0AA
:101230004001016170470000581100200020024069
:10124000064A0021D16106490A6942F002020A6198
:101250004861086940F0400008617047581100205B
:1012600000200240044B0022DA61044A136943F073
:1012700001031361018070475811002000200240D3
:1012800014490020CA68D306134A04D5D06940F037
:101290000200D0611020CB685B0705D5D36943F00D
:1012A0000103D36140F00400CB69DB0707D0D369A9
:1012B00043F00403D361CA6922F00102CA61A0F5B8
:1012C0008072013A01D0C8607047C86920F00100FF
:1012D000C8617047002002405811002070B50446D4
:1012E00000F0A8FC0546114E09E0601C07D024B1AF
:1012F00000F0A0FC401BA04201D9032070BDF068A3
:10130000C007F2D1F068800601D52020F060F068B7
:10131000C00605D4F069C00702D1F068400703D5C4
:10132000FFF7AEFF012070BD002070BD002002401D
:101330002DE9F843164688460546002400F052FB86
:10134000284600F02BF8074605EB860000F026F84B
:10135000014611480022C91B87600260012202EB8E
:10136000D121C160694600F097FA40B90DE058F804
:10137000242000232946022000F0F2FA18B100F0E0
:10138000DFFABDE8F883641C2D1DB442EFDB00F0EA
:10139000DDFA0020F5E70000BC1E002010B500219A
:1013A0004FF00822130402EBC124844207D903EB57
:1013B000C124844203D8C80200F1006010BD491C5A
:1013C0008029F0DB002010BD10B590F8211000221C
:1013D000022905D00421816380F82020012010BD5E
:1013E00001680B6823F00E030B6001680B6823F0A3
:1013F00001030B6090F84030012404FA03F1C36B41
:10140000596080F8214080F82020104610BD00006F
:101410002DE9F05F90F821100024022903D0042167
:101420008163012485E001680A6822F00E020A60E7
:1014300001680A6822F001020A603F4E3E4FB21571
:10144000DFF8F4C0DFF8F090DFF8ECA0DFF8E8B0E8
:10145000DFF8E4E00168783F13011502ACF1640C99
:10146000A9F15009AAF13C0AABF1280BAEF1140E18
:101470004FF48018B14227D9B9420ED0614512D03D
:1014800049451DD0514518D0594518D0714501D155
:10149000424615E0294EB14201D1012210E0274E0B
:1014A0001436B14201D110220AE0244E2836B1424E
:1014B00006D0224A3C32914201D11A4600E02A4627
:1014C0001E49091F0A602BE0B94213D0614517D0AD
:1014D000494522D051451DD059451DD0714501D1F6
:1014E00042461AE0B14202D14FF0807215E0134E2D
:1014F000B14201D1012210E0104E1436B14201D1A7
:1015000010220AE00D4E2836B14206D00B4A3C327A
:10151000914201D11A4600E02A46074980394A60C3
:10152000012180F82110002180F82010416B01B1C9
:1015300088472046BDE8F09F800002400804024032
:101540002DE9F05FC16B0B6801680A68046C4FF00D
:10155000040808FA04F8844D844E854FDFF814C25D
:10156000DFF81492DFF814A2DFF814B2DFF814E207
:1015700018EA030F65D05FEA427862D50A689206DE
:1015800003D40A6822F004020A60DFF8F0814FF405
:101590008062016808F1140813011402414524D93E
:1015A000A9420DD0B1420FD0B9421AD0614515D031
:1015B000494515D0514501D1120312E0594501D1D9
:1015C00004220EE0714501D140220AE06D4D143530
:1015D000A94206D06B4A2832914201D11A4600E056
:1015E00022466749091F0A6029E0A94213D0B14287
:1015F00015D0B94220D061451BD049451BD051457B
:1016000002D14FF4800217E0414502D14FF08062D1
:1016100012E0594501D104220EE0714501D140226A
:101620000AE0584D1435A94206D0564A2832914254
:1016300001D11A4600E022464B4908394A60C16A86
:1016400071E04FF0020808FA04F818EA030F70D0AE
:101650005FEA82786DD50A68920606D40A6822F09D
:101660000A020A60012180F82110DFF810814FF48E
:101670000072016808F1140813011402414524D9CD
:10168000A9420DD0B1420FD0B9421AD0614515D050
:10169000494515D0514501D1120312E0594501D1F8
:1016A00002220EE0714501D120220AE0354D1435A9
:1016B000A94206D0334A2832914201D11A4600E0AD
:1016C00022462F49091F0A6029E0A94213D0B142DE
:1016D00015D0B94220D061451BD049451BD051459A
:1016E00002D14FF4001217E0414502D14FF00072D1
:1016F00012E0594501D102220EE0714501D12022AC
:101700000AE0204D1435A94206D01E4A28329142E3
:1017100001D11A4600E02246134908394A600021E7
:1017200080F82010816A00291CD0BDE8F05F0847CE
:10173000FFE70825A5401D4214D0120712D50A68FC
:1017400022F00E020A6090F84020C36B012101FADA
:1017500002F25A60816380F82110002180F8201085
:10176000016BE0E7BDE8F09F080002401C0002406A
:101770003000024044000240580002406C00024029
:10178000080402401C04024030B560B11A4B0168E5
:101790001422994209D2194B0B44B3FBF2F2920086
:1017A0000264174A0AE0012030BD134B5B420B4430
:1017B000B3FBF2F2920002640F4A083AC2630222BB
:1017C00080F821200A6843F6F0739A43F0E9013467
:1017D0002343D0E902452C4323430469234344694E
:1017E00023438469234313430B6000214163012297
:1017F00042770177084630BD08040240F8FFFDBF7C
:101800000000024070B5044690F820000025012831
:101810000CD0012084F8200094F821600020012ED3
:1018200006D084F820000225284670BD022070BD35
:10183000022684F82160A0632068066826F001066D
:1018400006602046FFF7C2FCE06A002820680168B5
:1018500002D041F00E0106E021F004010160206891
:10186000016841F00A0101602068016841F001014E
:101870000160D9E770B5044600F0DCF90546601C4C
:1018800002D004480078044400F0D4F9401BA04280
:10189000FAD370BD2C0000202DE9F04705462648FC
:1018A0000F460126017E01290FD0012181460176D4
:1018B0002868DFF888804CF25034022808D0A2460D
:1018C0002046FFF70BFDA8B131E00220BDE8F0870C
:1018D0002046FFF703FD08BB0120FFF79FFC2046D1
:1018E000FFF7FCFCD8F81010064621F00401C8F8F8
:1018F00010101CE04FF0FF303860AC6811E020465B
:10190000FFF79EFC5046FFF7E9FCD8F810100600E0
:1019100021F00201C8F8101001D03C6007E004F586
:101920000064D5E9020100EBC120A042E7D8002104
:1019300089F818103046C9E75811002000200240ED
:101940000148C06970470000581100200348016930
:1019500041F080010161002070470000002002403A
:101960002DE9F05F05461D4888460024017E164695
:101970001F46012909D00121814601764CF2503AD7
:101980005046FFF7ABFC18B123E00220BDE8F09F02
:10199000012D02D0022D00D00425D346DFF840A04F
:1019A00015E0220130463946FEF7ACFC81B208EB67
:1019B0004400FFF757FC5846FFF790FCDAF8102078
:1019C00022F00102CAF8102018B9641CE4B2AC423B
:1019D000E7D3002289F81820D8E70000581100202A
:1019E00000200240064900200A69120607D5054A70
:1019F0004A60054A4A600969090600D50120704716
:101A00000020024023016745AB89EFCD70470000FD
:101A1000044910B50A68024202D00860FFF7F6FFD9
:101A200010BD0000140401402DE9F84FDFF8C0910B
:101A30000024A9F1040B23464FF00F0809F1040A12
:101A4000ABF1040ECCE00127A7403A40BA4272D174
:101A5000DFF8A0C14D68A5EB0C0665452BD00DDC69
:101A6000032D34D005DC35B3012D19D0022D2FD133
:101A70001BE0112D16D0122D2AD119E0B6F5881FC2
:101A800019D006DCB6F5803F15D0B6F5801F1FD102
:101A900011E0B6F5001F0ED0B6F5041F18D10AE00C
:101AA000CB6815E0CB681B1D12E0CB6808330FE054
:101AB000CB680C330CE08B682BB1012B4FF0080383
:101AC00003D0476104E0042302E0076100E0002343
:101AD000FF2A01D8064601E000F104064FEA84051A
:101AE00001D9A5F12005376808FA05FC27EA0C079B
:101AF00003FA05F547EA050737604D68ED006ED536
:101B00003D4DAE6946F00106AE61AD6924F00306B5
:101B100005F001050095394D7719BE68A5072D0F11
:101B200008FA05FC26EA0C06DFF8D4C0604503D1AC
:101B30004FF0000C25E052E0DFF8C8C0604502D14C
:101B40004FF0010C1DE0DFF8C0C0604502D14FF03E
:101B5000020C16E0DFF8B4C0604502D14FF0030C70
:101B60000FE0DFF8ACC0604502D14FF0040C08E094
:101B7000DFF8A0C0604502D14FF0050C01E04FF046
:101B8000060C0CFA05FC4CEA060CC7F808C04D68B8
:101B9000D9F80060ED024D4601D5164300E09643AA
:101BA0002E604D68DAF80060AD02554601D5164347
:101BB00000E096432E604D68DBF80060AD035D46A3
:101BC00001D5164300E096432E604D68DEF80060B4
:101BD000ED03754601D5164300E096432E60641C64
:101BE0000A6832FA04F57FF42EAFBDE8F88F0000E2
:101BF00008040140000011100010024000000140E4
:101C000000080140000C0140001001400014014098
:101C100000180140001C0140C26821EA02030A408A
:101C200043EA0241016170470AB10161704709044A
:101C3000FBE7000001488068704700002C0000208E
:101C400070B5040025D094F83D00002520B984F833
:101C50003C50204600F0B8F8242084F83D0020686D
:101C6000016821F0010101602068016841F4004130
:101C700001602068016821F40041016000F052FA1F
:101C80004D4B6168994201D84C4900E04C4988426B
:101C900001D2012070BD4B492268B0FBF1F15668BA
:101CA00026F03F060E43566062689A4206D94FF40A
:101CB000967251434FF47A72B1FBF2F12268491CDB
:101CC000166A26F03F06314311626168994210D8C6
:101CD0004900401EB0FBF1F2521CC2F30B02042A71
:101CE00001D2042022E0B0FBF1F0401CC0F30B0055
:101CF0001CE0A268F2B301EBC10303EB0116431E23
:101D0000B3FBF6F35B1C43F480431B0549D092B34D
:101D100001EBC10202EB0111401EB0FBF1F0401CCF
:101D2000C0F30B0040F4804040F400402168CA69D1
:101D30004CF6FF739A431043C861D4E9071001437E
:101D40002068026822F0C00211430160D4E9030157
:101D500001432068826848F2FF339A43114381604F
:101D6000D4E9051001432068C26822F0FF02114344
:101D7000C16001E00EE016E02068016841F0010159
:101D800001602564202084F83D00256384F83E50DE
:101D9000002070BD01EB4106431EB3FBF6F35B1C54
:101DA000B3E70120C2E701EB4101401EB0FBF1F0B7
:101DB000401CC0F30B00B7E7A086010080841E0022
:101DC00000093D0040420F0010B586B0002100918F
:101DD00001910291039100680F4988421AD10F4C7A
:101DE000A06940F00800A061A069694600F0080001
:101DF0000490C02000901220019003200390084816
:101E0000FFF712FEE06940F40010E061E06900F4C1
:101E10000010049006B010BD0054004000100240B5
:101E2000000C0140024881680278114481607047CB
:101E30002C000020074810B5016841F01001016036
:101E4000032000F0A1F80F2000F006F800F04AF897
:101E5000002010BD0020024030B505461C4887B068
:101E6000816941F400618161806905A900F4006025
:101E70000690684600F036F900F064F91549164AF4
:101E8000B0FBF1F11548491E026040F2E732C26032
:101E900000220261C0E90112826100F0A9FB040086
:101EA00012D10E4800F0D2FB04000DD1192000F031
:101EB0003DF8102D07D200222946192000F044F8E1
:101EC0000748056000E0012407B0204630BD00004F
:101ED0000010024040420F00002C01400C11002075
:101EE000300000200F4808B5816941F0010181618F
:101EF000816901F001010091C16941F08051C16126
:101F0000C069002200F0805000900F21901E00F068
:101F10001BF80549486820F0E06040F00070486018
:101F200008BD00000010024000000140002809DB4D
:101F300000F01F02012191404009800000F1E020E3
:101F4000C0F8001170470000F0B40E4B1B68C3F3DB
:101F50000223C3F10704042C00D904241D1D072DFE
:101F600001D2002300E0DB1E012606FA04F56D1EF7
:101F70000D409D409E40761E164045EA0601F0BC8D
:101F800001F0C5BE0CED00E0064A00F00701106844
:101F90004FF6FF03184040EA012003490843106050
:101FA000704700000CED00E00000FA052DE9F04755
:101FB0000D46040067D0DFF81881D8F8000000F063
:101FC0000700A8420CD2D8F8001021F007012943DD
:101FD000C8F80010D8F8000000F00700A84252D15D
:101FE00020683C4E810712D5400703D5706840F445
:101FF000E06070602078000703D5706840F460509E
:1020000070607068A16820F0F0000843706020786C
:10201000C00727D06068012810D03168022810D08E
:10202000890700292FDA716821F0030101437160EB
:10203000FFF700FE074641F288390CE0316889035A
:10204000EFE78901EDE7FFF7F5FDC11B494502D92F
:102050000320BDE8F0877068616800F00C00B0EB09
:10206000810FF0D1D8F80010404601F00701A942D5
:102070000BD9016821F0070129430160006800F0D5
:102080000700A84201D00120E3E72078400705D5EA
:102090007068E16820F4E060084370602078000711
:1020A00006D57068216920F4605040EAC100706074
:1020B00000F058F87168084AC1F30311515CC84038
:1020C0000649086006480068FFF7C6FE0020C0E722
:1020D0000020024000100240B250000838000020EA
:1020E000300000200F2202600C4A536803F0030303
:1020F0004360536803F0F0038360536803F4E063C4
:10210000C36052684FF4E06303EAD20202610448FC
:10211000006800F0070008607047000000100240EF
:10212000002002400448054900684968044AC1F398
:102130000221515CC8407047380000200010024066
:10214000C25000080448054900684968044AC1F3C0
:10215000C221515CC8407047380000200010024086
:10216000C25000080E4B59680E4801F00C02042AB8
:1021700011D0082A0FD10C48C1F38342C903805CF7
:102180000AD55968084AC1F34041921E515C054A7C
:102190005043B0FBF1F070470449484370470000DA
:1021A0000010024000127A00A250000800093D0011
:1021B0002DE9F84F04006FD02078BE4DC00747D0FE
:1021C0006868C0F38100012807D06868C0F3810007
:1021D000022809D16868C00306D52868800337D56E
:1021E00060680028E7D033E06068B0F5803F0BD02E
:1021F00010B1B0F5A02F11D0286820F480302860ED
:10220000286820F4802002E0286840F480302860AC
:10221000606888B1FFF70EFD064609E0286840F4C3
:1022200080202860F0E7FFF705FD801B642873D845
:1022300028688003F7D50BE0FFF7FCFC064604E0B6
:10224000FFF7F8FC801B6428F1D828688003F7D4D6
:102250002078DFF8648280074FF0010A4FF0000910
:1022600039D5686810F00C0F07D06868C0F381009A
:10227000022809D16868C00306D42868800714D5ED
:102280002069012808D110E02069B0B1C8F800A089
:10229000FFF7D0FC064605E007E1FFF7CBFC801B0B
:1022A0000228C4D828688007F7D52868616920F01B
:1022B000F80040EAC10028600DE0C8F80090FFF780
:1022C000B9FC064604E0FFF7B5FC801B022823D8C2
:1022D00028688007F7D4207800072CD57748A169B3
:1022E000D9B1C0F800A0FFF7A5FC064604E0FFF74F
:1022F000A1FC801B02280FD8686A8007F7D57048B8
:102300004FF4FA510068B0FBF1F0009000BF009864
:10231000411E0091FAD20EE07CE0C0F80090FFF779
:1023200089FC064604E0FFF785FC801B022871D873
:10233000686A8007F7D4207840075BD5E8690027F2
:10234000C00008D4E86940F08050E861E8690127DE
:1023500000F0805000905B480168C90511D4016805
:10236000834641F480710160FFF764FC064604E097
:10237000FFF760FC801B64284CD8DBF80000C00528
:10238000F6D5E06801280AD008B1052813D0286ADC
:1023900020F001002862286A20F0040002E0286A88
:1023A00040F001002862E06841F2883B88B1FFF705
:1023B00041FC064609E0286A40F004002862EEE786
:1023C000FFF738FC811B59455BD8286A8007F7D591
:1023D0000BE0FFF72FFC064604E0FFF72BFC811B08
:1023E00059454ED8286A8007F7D41FB1E86920F014
:1023F0008050E861E069A8B36968C1F381010229EE
:1024000046D00228484606D0C8F86000FFF712FC04
:10241000044639E035E04746C8F86000FFF70AFC9B
:10242000064604E0FFF706FC801B022829D828682E
:102430008001F7D4206AB0F5803F05D16868A168B3
:1024400020F4003008436860D4E908010843696853
:1024500021F4741108436860C7F860A0FFF7EAFB35
:10246000044605E023E0FFF7E5FB001B022808D83F
:1024700028688001F7D51AE0FFF7DCFB001B022873
:1024800002D90320BDE8F88F28688001F4D40EE05B
:102490000128F7D06868226A00F48031914204D1A3
:1024A000616A00F47010884201D00120EAE7002040
:1024B000E8E700000010024000004242800442426F
:1024C000380000200070004070B5040009D0606A38
:1024D000002540B125616561A56294F8510040B1C5
:1024E0000CE0012070BD6068B0F5827FF4D0E5613A
:1024F000F2E784F85050204600F040F8022084F8BB
:1025000051002068016821F040010160A088218904
:1025100000F4827001F404410843A18901F40061D0
:102520000843217C01F002010843217D01F00101F3
:102530000843218B01F400710843217F01F0380129
:10254000084394F8201001F080010843218D01F424
:102550000051084321680860A069042101EA104085
:10256000216848602068C16921F40061C161656526
:10257000012084F85100002070BD000030B585B006
:102580000024009401940294039400681449884242
:1025900023D11448816941F480518161816901F43A
:1025A00080510491816941F00401816180690E4D7F
:1025B00000F004000490A02000900220019003206D
:1025C000039069462846FFF72FFA4020CDE9000422
:1025D000694628460294FFF727FA05B030BD00008F
:1025E0000030014000100240000801407047704771
:1025F00010B5040003D094F83D0010B107E00120AD
:1026000010BD002084F83C00204600F01EF8022097
:1026100084F83D00211D206801F014F9012084F8A0
:10262000460084F83E0084F83F0084F8400084F8B7
:10263000410084F8420084F8430084F8440084F8A0
:10264000450084F83D00002010BD704790F83D1013
:10265000012901D001207047022180F83D10016856
:10266000CA6842F00102CA6000680E4988420ED072
:102670000D4988420BD0B0F1804F08D00B498842F9
:1026800005D00B49884202D00A49884204D18168AA
:1026900001F00701062903D0016841F00101016042
:1026A00000207047002C014000340140000400402D
:1026B00000080040000C0040704770B504460068F8
:1026C00001694FF00005C943890715D4C168C943A2
:1026D000890711D4E91E01610120207720688069F3
:1026E0008007204602D0FFF7E7FF04E000F098F8EB
:1026F000204600F096F8257720680169C94349070C
:1027000017D4C168C943490713D46FF004010161AC
:10271000022020772068806910F4407F204602D094
:10272000FFF7CAFF04E000F07BF8204600F079F8DC
:10273000257720680169C943090716D4C168C943D0
:10274000090712D46FF00801016104202077206886
:10275000C0698007204602D0FFF7AEFF04E000F01A
:102760005FF8204600F05DF8257720680169C943CD
:10277000C90617D4C168C943C90613D46FF0100144
:102780000161082020772068C06910F4407F20464E
:1027900002D0FFF791FF04E000F042F8204600F07D
:1027A00040F8257720680169C943C90708D1C16885
:1027B000C943C90704D1891E0161204600F032F8DF
:1027C00020680169C943090609D4C168C9430906DB
:1027D00005D46FF0800101612046FFF707FF2068F4
:1027E0000169C943490609D4C168C943490605D4EA
:1027F0006FF040010161204600F01EF82068016979
:10280000C94389060BD4C168C943890607D46FF050
:10281000200101612046BDE87040FFF7E8BE70BDB1
:102820007047704700680349884201D1FFF7FABA40
:1028300070470000002C0140704738B5044690F8FE
:102840004200202801D0022038BD51B14AB10120F8
:10285000206300206063204601F0ACF9010002D043
:1028600005E0012038BD206B012802D00121084677
:1028700038BD206802684068009020680C3050E83D
:10288000002F42F0100240E80023002BF5D1EEE7C4
:1028900018B5034690F84200202801D0022018BD48
:1028A00051B14AB10120186300205863184601F065
:1028B000CBF9010002D005E0012018BD186B0128FA
:1028C00002D00121084618BD1868026840680090CF
:1028D00018680C3050E8002F42F0100240E8002445
:1028E000002CF5D1EEE7000070B5054600683849C8
:1028F000384C884214D1384901F5807000F02FFB24
:10290000364901F1E40000F036FB6068401C60606D
:102910000120607030490202A1F18C00FFF7B8FF7E
:102920002F492868884251D12E494FF4FA72A1F5F7
:102930004E70FFF782FF2CA12A4801F069FA80B19E
:10294000244A2BA12748FDF79BFE012809D12348E3
:1029500022782CA18030FDF7E9FC2048803000F07F
:1029600049FD2CA11F4801F053FA00282ED0194828
:102970001C49183001F0BEFA164C2A491834206858
:10298000FEF7B4F8002821D127A1606801F040FAD1
:1029900000281BD004F10801606801F0D1FA04F1AD
:1029A0000800FDF78BFF800701D0012400E0002420
:1029B00008482030FDF782FF04EB9000BDE870402E
:1029C000044982B220311948FEF7B2BC70BD000044
:1029D00000480040000000209002002090030020EA
:1029E00000380140F4040020434D54490000000029
:1029F0000A2B434D54493A2022534D222C25686816
:102A00006400000041542B434D47523D25640D0A9C
:102A100000000000434D51545452585354415254F5
:102A2000000000001C50000873647400008001085E
:102A300070470000F8B5016804460868CA684B6929
:102A400010F00F0F4FF0000559D003F0010602F40B
:102A50009077374365D0C10705D0D10503D5616CA8
:102A600041F001016164410705D5D90703D0616CCC
:102A700041F002016164810705D5D90703D0616C7B
:102A800041F004016164010707D502F020013143E0
:102A900003D0616C41F008016164616C00293AD097
:102AA000800604D5900602D5204600F0C5FF2068B8
:102AB0004069616CC0F38010090700D460B3204600
:102AC00000F085FF20684069400621D52068143059
:102AD00050E8001F21F0400140E80012002AF5D123
:102AE000E06BA8B16D494163E06BFEF791FC0028F3
:102AF00011D0E06B416B01B0BDE8F04008478306A0
:102B00000FD593060DD52046BDE8F84000F094BFE0
:102B10002046FFF78DFFF8BD2046FFF789FF65646B
:102B2000F8BD266B2023012E7CD1C6067AD5D606A9
:102B300078D508684868009048694FF0020640065A
:102B400040D5E16B086840680004000CE8D0A28D15
:102B50008242E5D9E085886920282DD020680C3094
:102B600050E8001F21F4807140E80012002AF5D1DE
:102B70002068143050E8001F21F0010140E80012E5
:102B8000002AF5D12068143050E8001F21F04001E0
:102B900040E80012002AF5D184F84230256320680D
:102BA0000C3050E8001F21F0100140E80012002A0C
:102BB000F5D1E06BFEF708FC6663A08DE18D401A4D
:102BC00081B22AE0A08DE18D401A81B2E08D00280B
:102BD000A6D00029A4D020680C3050E8002F22F4A1
:102BE000907240E80027002FF5D12068143050E89B
:102BF000002F22F0010240E80027002FF5D184F8D1
:102C00004230256320680C3050E8002F22F010027B
:102C100040E80023002BF5D166632046FFF764FEF1
:102C2000F8BDFFE705062BD5150629D594F8410018
:102C30002128F5D1A068B0F5805F01D12069B0B13D
:102C4000206A411C2162216800784860E08C401EA7
:102C50000004000CE084E3D12068C16821F0800109
:102C6000C1602068C16841F04001C160D8E7206AB6
:102C70000088C0F308004860206A801C2062E5E7F5
:102C80004006CDD55006CBD5CA68204622F040027A
:102C9000CA6084F8413000F060F9C1E7D13800081B
:102CA00070B5040004D094F84100002510B106E08E
:102CB000012070BD84F84050204600F023F8242005
:102CC00084F841002068C16821F40051C1602046A9
:102CD00000F014FF2068016921F49041016120682F
:102CE000416921F02A0141612068C16841F4005125
:102CF000C1606564202084F8410084F84200656367
:102D0000002070BDF0B585B00024009401940294B9
:102D10000394064601683848364D022203230715FE
:102D2000A9423AD1816941F480418161816901F40C
:102D300080410491816941F00401816180692F4DD6
:102D400000F0040004901002CDE9000269460393EC
:102D50002846FEF769FECDE90074694628460294CC
:102D6000FEF762FE274D2648C5E900048020C5E92C
:102D700002402C6180016C61C5E906402846FEF7DF
:102D800003FD08B1FEF747FAF5630022052125206F
:102D90006E62FFF7D9F8252028E01B4DA94227D104
:102DA000C16941F48021C161C16901F480210491AC
:102DB000816941F0080181618069144D00F00800CB
:102DC000CDE90330CDE9007269462846FEF72CFEB6
:102DD000E814CDE90004694628460294FEF724FE73
:102DE000002205212720FFF7AFF82720FFF79EF8E4
:102DF00005B0F0BD0038014000100240000801405D
:102E0000580002404C02002000480040000C0140E5
:102E10002DE9F843044690F84200984615460E46C0
:102E2000202802D00220BDE8F883AEB1A5B1002071
:102E30006064222184F842102063FEF7FBFEA58522
:102E40008146E585A0684FF48057B84201D12069DA
:102E500020B13546002626E00120E4E7002522E0E7
:102E60004B46002220212046CDF8008000F007FFCD
:102E700008B10320D7E725B1A068B8421BD038B10C
:102E800008E020684068C0F3080026F8020B07E05D
:102E9000206980B12068406800F07F0005F8010BD0
:102EA000E08D401EE085E08D0028D9D1202084F8F7
:102EB00042000020B7E720684068EFE7704770479E
:102EC0002DE9F843044690F841001F4615460E468A
:102ED000202802D00220BDE8F8837EB175B1002021
:102EE0006064212084F84100FEF7A4FEA58480469A
:102EF000E584A068B0F5805F02D003E00120EAE736
:102F0000206910B1354600260EE000250CE0802136
:102F1000204600F0B4FEA0B9ADB115F8010B216850
:102F20004860E08C401EE084E08C43464FF0000295
:102F300000970028EBD14FF04001204600F09FFEA3
:102F400030B10320C7E736F8020BC0F30800E6E70C
:102F5000202084F841000020BDE77047FEE70022F2
:102F600001EB4203B3F803305BBA20F81230521C75
:102F7000402AF5DB70470B884A8842EA0342026028
:102F80008B88CA8842EA034242600B894A8942EA36
:102F9000034282608B89CA8942EA0342C2600B8A7B
:102FA0004A8A42EA034202618B8ACA8A42EA03429F
:102FB00042610B8B4A8B42EA034282618B8BCA8B44
:102FC00042EA0342C2610B8C4A8C42EA034202622B
:102FD0008B8CCA8C42EA034242620B8D4A8D42EAD4
:102FE000034282628B8DCA8D42EA0342C2620B8E1B
:102FF0004A8E42EA034202638B8ECA8E42EA034241
:1030000042630B8F4A8F42EA034282638B8FCA8FDF
:1030100042EA0342C263B1F84030B1F8422042EACA
:1030200003420264B1F84430B1F8462042EA034258
:103030004264B1F84830B1F84A2042EA034282645F
:10304000B1F84C30B1F84E2042EA0342C264B1F804
:103050005030B1F8522042EA03420265B1F85430D0
:10306000B1F8562042EA03424265B1F85830B1F84F
:103070005A2042EA03428265B1F85C30B1F85E2022
:1030800042EA0342C265B1F86030B1F8622042EA18
:1030900003420266B1F86430B1F8662042EA0342A6
:1030A0004266B1F86830B1F86A2042EA03428266AB
:1030B000B1F86C30B1F86E2042EA0342C266B1F852
:1030C0007030B1F8722042EA03420267B1F87430FE
:1030D000B1F8762042EA03424267B1F87830B1F89D
:1030E0007A2042EA03428267B1F87C20B1F87E1070
:1030F00041EA0241C167704710B59CB013212948CD
:1031000000F0BAFE28A000F075F94FF4FA742046DA
:1031100001F02EFD29A000F06DF9204601F028FDF8
:103120002BA000F067F9204601F022FD2DA000F051
:1031300061F9204601F01CFD1A4A2EA102A8FDF7F4
:10314000F5F802A800F056F9204601F011FD6421BF
:1031500002A8FDF779FC2DA32FA2CDE9002340F2B0
:103160005B732FA234A102A8FDF7E0F821463D4889
:10317000FDF748FC02A800F03DF9600001F0F8FC02
:1031800039A1384800F044FE394928B100200870C0
:103190004878401C487001E00120087008781CB095
:1031A00010BD0000301F002041542B534D5154449A
:1031B0004953434F4E3D300D0A00000041542B53FC
:1031C0004D515454434F4E4649470D0A00000000EC
:1031D00041542B534D515454434F4E4E4543543D4F
:1031E000300D0A0041542B434D5154545354415215
:1031F000540D0A0041542B434D5154544143435103
:103200003D302C222573220D0A0000003132333468
:103210003536373839400000726F6F740000000097
:103220007463703A2F2F6D7174742E736B796E6F97
:1032300063652E636F6D000041542B434D51545410
:10324000434F4E4E4543543D302C2225733A25645E
:10325000222C36302C312C222573222C222573224D
:103260000D0A0000F40400204552524F52000000A5
:10327000B80000202DE9F04385B0002437480094C1
:10328000019402940394816941F040018161816954
:1032900001F040010491816941F00401816181697B
:1032A00001F004010491816941F0080181618169A3
:1032B00001F008010491816941F010018161806988
:1032C000DFF89C8000F0100048F2FC05049000221A
:1032D00029464046FEF7A8FCDFF888904FF4807638
:1032E000002231464846FEF79FFC0127CDE90057F2
:1032F000022569464046CDE90245FEF795FB00965A
:10330000CDE90175694648460395FEF78DFBA80394
:10331000154D6946CDE9000502944846FEF784FB49
:103320004FF4A050CDE90005104D6946029428469F
:10333000FEF77AFBE814CDE90004694628460294BA
:10334000FEF772FB002205212820FEF7FDFD282054
:10335000FEF7ECFD05B0BDE8F08300000010024070
:103360000018014000080140000011100010014049
:103370000F4810B50D4901604FF482714160002182
:103380008160C1604FF400720161C0E9051238220A
:10339000C0E90721416281620A21C162FFF794F806
:1033A000002801D072B6FEE710BD000000300140D9
:1033B00064010020FEE7FEE710B500F079FD044B44
:1033C00004A264210A48FCF7C5FF094810BD0000AB
:1033D000581F0020484248414E4F492F4D464D440A
:1033E0004154412F25732F50554244415441000010
:1033F000CC1E002010B504464FF4FA710948FDF7C1
:1034000001FB214608A000F099FC2046FDF756FA82
:10341000214682B2BDE810404FF47A730648FFF7A8
:103420004FBD0000F40400205452414E534D495406
:103430003A2025730A000000BC01002000F09FFD27
:1034400000F094FD00F034FD202254213A48FDF7AD
:10345000D1FA3949002081F8530038A101F0A2FACD
:103460003849002001F09EFA37A1012001F09AFAB4
:1034700034490220143901F095FA38A1032001F0F3
:1034800091FA0026DFF8E490DFF8E4A035463446F0
:10349000B04699F803004F46B04205D0061E28D02A
:1034A00034A1012001F07EFAF87840B13879A842C1
:1034B00005D0051E1FD035A1012001F073FA38791F
:1034C00040B1B879A04205D0041E16D035A1012024
:1034D00001F068FA0221002001F0EEF919481438D1
:1034E00000F0BDFD9AF80000574640451FD030B1AE
:1034F00009E032A1D5E737A1DEE73CA1E7E717A154
:10350000032001F04FFA3878012803D13DA10320B0
:1035100001F048FA3878022803D13EA1032001F0D7
:1035200041FA3878032802D13EA101F03BFA642029
:1035300000F008FFADE70000681E002049443A2073
:1035400000000000581F002054525920544F2043BF
:103550004F4E4E4E45435454494E470053544154E8
:10356000453A202049444C4500000000020100205B
:1035700001010020436F6E6E3A2053494D204F4B9E
:10358000202020202020202000000000436F6E6EAD
:103590003A20494E5445524E4554204F4B2020204E
:1035A00000000000436F6E6E3A204D515454204F7E
:1035B0004B20202020202020000000005472792081
:1035C000436F6E6E65637420546F204D53696D2197
:1035D0000000000054727920436F6E6E65637420A2
:1035E000546F20496E7465210000000054727920E8
:1035F000436F6E6E65637420546F204D7174742137
:103600000000000053544154453A2020434F4E4E91
:103610004543540053544154453A202055504C4F93
:103620004144000053544154453A20204552524FE2
:10363000520000001E4EDFF87C801F4C1F4F0025FB
:103640004FF47A79402300220421012000F0B0FEDB
:10365000307820B1A5703570257019A206E0207869
:103660006178884207D30220A0701BA21421204851
:10367000FCF770FE09E0401CC3B223700120A0706B
:103680001CA214211A48FCF765FE04214046FEF7EF
:10369000C3FAA570A07930B1386820B100230222A6
:1036A000194601F0A5FB484600F04CFECAE70000B1
:1036B0000100002000180140020100201400002039
:1036C0004D6F64627573206465766963653A204F57
:1036D0004B202020200000004D6F64627573206431
:1036E00065766963653A20544F2020202000000051
:1036F000441F00204D6F64627573206465766963B2
:10370000653A202564202020200000001B4C02E0A8
:1037100000F06CFBE070E0780028F9D00BE0E07876
:1037200038B100F02DFB20B100F00AFB08B10120F8
:1037300000E00020207120790028F0D008E02079F6
:1037400020B100F00BFB08B1012000E00020607107
:1037500060790028F3D002E0FFF7CEFCA071A079D9
:103760000028F9D0064C4FF47A7508212046FEF760
:1037700053FA284600F0E6FDF7E7000002010020BA
:1037800000180140084D4FF0FF342146012001F0A0
:10379000D5F801F0ADF810212846FEF73DFA642077
:1037A00000F0D0FDF1E700000018014010B55020F6
:1037B00080F31188BFF34F8FBFF36F8F01F070FB61
:1037C00018B104494FF080500860002080F3118840
:1037D00010BD000004ED00E030B58FB02821684630
:1037E000FDF732F914210AA8FDF72EF90120010492
:1037F00000248DE8130004904FF4E010CDE9081088
:10380000022507956846FEF7D3FC08B172B6FEE7BD
:103810000F20CDE90A054FF48060CDE90C4002216C
:103820000AA80E94FEF7C2FB002801D072B6FEE78C
:103830000FB030BD704700000148FEF73EBF0000EA
:103840000C110020F0B502681C4D1D4E1D4FDFF815
:1038500078C01E4B4FF0804EA84209D0984207D046
:10386000704505D0B04203D0B84201D0604503D1C5
:1038700022F070044A682243A84209D0984207D037
:10388000704505D0B04203D0B84201D0604503D1A5
:1038900022F44074CA6822434C6922F08002224319
:1038A00002608A68C2620A688262A84201D09842B5
:1038B00001D10969016301214161F0BD002C014082
:1038C0000004004000080040000C004000340140AB
:1038D00010B5406A0021C185C184FFF7A9F810BD69
:1038E00070B5446A2068406994F84110C0F3C01074
:1038F0000025212904D118B1E584204600F08EF876
:103900002068406994F84210C0F38010222904D145
:1039100018B1E585204600F05AF8606C40F01000C0
:1039200060642046FFF784F870BD10B50146406A18
:10393000096809684FF0000389062ED4C385016821
:103940000C3151E8002F22F4807241E80024002C51
:10395000F5D10168143151E8002F22F0010241E84D
:103960000024002CF5D10168143151E8002F22F019
:10397000400241E80024002CF5D1202180F84210BB
:10398000016B012909D101680C3151E8002F22F0A7
:10399000100241E80024002CF5D14363016B01299A
:1039A00002D0FFF78BFA10BD818DFEF79DFF10BD91
:1039B00010B5406A01214163016B012902D0FFF774
:1039C0007EFA10BD818D4908FEF78EFF10BD01689B
:1039D0000C3151E8002F22F4907241E80023002BB3
:1039E000F5D10168143151E8002F22F0010241E8BD
:1039F0000023002BF5D1016B012909D101680C319D
:103A000051E8002F22F0100241E80023002BF5D1ED
:103A1000202180F8421000210163704701680C31B9
:103A200051E8002F22F0C00241E80023002BF5D11D
:103A3000202180F84110704708B590F842102229E3
:103A400001D0022008BD81684FF48053994201D112
:103A5000026922B1826A99421BD049B10AE0026828
:103A6000816A5268C2F308020A80816A891C08E0F0
:103A7000016971B10168496801F07F011170816AC3
:103A8000491C8162C18D491E0904090CC18503D0FE
:103A90001BE001684968F1E70168CA6822F020026A
:103AA000CA600168CA6822F48072CA6001684A6903
:103AB00022F001024A61202180F842100021416376
:103AC000026B012A03D0FFF7F9F9002008BD01635A
:103AD00001680C3151E8002F22F0100241E8002368
:103AE000002BF5D101680A68D20602D50A68496838
:103AF0000091818DFEF7F8FEE7E7000070B50446FF
:103B000000680169E26821F4405111430161A16834
:103B100020690143606901432068C26841F20C6377
:103B20009A430A43C26020684169A26921F4407146
:103B3000114341611E492068884202D1FEF702FB11
:103B400001E0FEF7EFFA00EBC00101EB0011606845
:103B500064228000B1FBF0F3B3FBF2F36FF01806C0
:103B60007343B1FBF0F5B1FBF0F605EB83053223AF
:103B700003EB0515B5FBF2F5B6FBF2F605F0F00523
:103B800005EB0615B1FBF0F6B1FBF0F0B0FBF2F07F
:103B90006FF01801484306EB800003EB0010B0FB08
:103BA000F2F0216800F00F002844886070BD00002A
:103BB0000038014037B582B01346039A826204464A
:103BC000838500206064222184F84210E56B1B4944
:103BD000A962E56B1A49E962E56B1A492963E16B51
:103BE00048632168E06B091DFDF70CFE2068016841
:103BF00040680090206948B120680C3050E8001FF0
:103C000041F4807140E80012002AF5D12068143098
:103C100050E8001F41F0010140E80012002AF5D1F0
:103C20002068143050E8001F41F0400140E80012C5
:103C3000002AF5D105B0002030BD00002B39000866
:103C4000B1390008E138000881628285C28500210F
:103C50004164222180F84210016921B10168CA68DB
:103C600042F48072CA6001684A6942F001024A6106
:103C70000068C16841F02001C160002070472DE953
:103C8000F0411E46174688460446069D26E0681CFD
:103C900024D025B1FDF7CEFF801BA8421ED9206895
:103CA0000C3050E8001F21F4D07140E80012002AC7
:103CB000F5D12068143050E8001F21F0010140E8E0
:103CC0000012002AF5D1202084F8410084F8420037
:103CD000002084F840000320BDE8F08120680168DE
:103CE00038EA010004D00020B842D0D00020F3E729
:103CF0000120F9E70148FEF79DBE0000BC0100204D
:103D00000148FEF797BE000004020020FEE7090705
:103D1000090E002804DB00F1E02080F80014704751
:103D200000F00F0000F1E02080F8141D70473038DB
:103D30000A2801D201207047002070477047000018
:103D4000642202A102A000F057BD00004F4B00000A
:103D500041542B43474154543F0D0A00642202A1B1
:103D600002A000F049BD00004F4B000041542B431E
:103D70004D515454434F4E4E4543543F0D0A00009D
:103D80001CB54FF4967000F0F3FE64220DA10EA056
:103D900000F032FD98B10FA11048FCF759FD70B149
:103DA00001AB6A460EA1FCF76BFC022807D1009814
:103DB000632802D10198632801D001201CBD002096
:103DC0001CBD00004F4B000041542B4353510D0AC2
:103DD000000000002B4353513A200000F40400205F
:103DE0002B4353513A2025642C25640010B54FF421
:103DF000967000F0BDFEBDE81040642201A102A053
:103E000000F0FABC4F4B000041540D0A00000000C6
:103E100010B5FCF71DFD002800D0012010BD0000EA
:103E200070B5094DFF231A4605F5807605E010F8B8
:103E3000014B54402A5D5A40335D491E89B2F6D287
:103E400042EA032070BD0000CA50000802A204A18B
:103E50000848FCF76BBA0000094D545100000000FF
:103E60004E4557204441544120544553542C20255D
:103E700073000000E80600202DE9F04100240D4603
:103E800006463E27DFF8248009E0FCF701FA90FBA4
:103E9000F7F107FB110018F800003055641CAC4224
:103EA000F3D300207055BDE8F0810000BA00002077
:103EB0000548D0E9003180684B40434003A2092106
:103EC0000448FCF747BA0000E8F7FF1F2530386CBC
:103ED00058000000581F002010B540210448FDF78D
:103EE0009BFEBDE810404FF4FA7000F041BE0000A8
:103EF0000018014070B50A4605460FA11046FCF7B0
:103F0000A1FC0E4C0CA120600020FCF79BFC606023
:103F100009A10020FCF796FCA06007A10020FCF797
:103F200091FCE06004A10020FCF78CFC2061A068FB
:103F300028602069686070BD0D0A00009C000020A8
:103F400070B50C4607A1FCF77DFC074D05A1686123
:103F50000020FCF777FC0146A8612046BDE87040D0
:103F6000FCF788BC3A0000009C00002010B501203E
:103F700000F041F8BDE810406420FDF77BBC10B5AF
:103F80003220FDF777FC032000F035F80520FDF71F
:103F900071FC032000F02FF80120FDF76BFC0320DB
:103FA00000F029F80A20FDF765FC022000F023F854
:103FB0000A20FDF75FFC282000F01DF80120FDF726
:103FC00059FC082000F017F80120FDF753FC0120F0
:103FD00000F011F80120FDF74DFC0120FDF74AFC2F
:103FE000062000F008F80120FDF744FCBDE8104071
:103FF0000C20AFF3008000F0F00108B541F00C0296
:104000008DF8002041F0080100018DF8011040F00A
:104010000C018DF8021040F008008DF80300042216
:104020006946272000F026F808BD00F0F00108B529
:1040300041F00D028DF8002041F0090100018DF8DA
:10404000011040F00D018DF8021040F009008DF8CC
:10405000030004226946272000F00CF808BD10B5C3
:10406000044602E0641CFFF7E0FF20780028F9D145
:1040700010BD000078B5144C23689B07FCD4124E89
:10408000183E336843F4807333600F4B1B1F1D6869
:10409000ED07FCD00C4D4000083D286018688007F3
:1040A000FCD520680090002006E00C5C2C601C68A9
:1040B0006407FCD5401CC0B29042F6D3306840F48F
:1040C0000070306078BD0000185400409EB0FDF7CD
:1040D000B1FEFFF781FBFFF7CDF84848416941F099
:1040E000010141614069002200F001001C9005219E
:1040F0000F20FDF729FF0F20FDF718FF4148404929
:10410000002401604049C0E901144FF48041C0E936
:10411000034144618461C4610462FDF791FD08B10B
:1041200072B6FEE737483949AC300C2501604FF4D0
:10413000E131C0E90114C460C0E904458461C4618F
:10414000FEF7AEFD08B172B6FEE72E483049F430F6
:1041500001604FF41651C0E90114C460C0E9044580
:104160008461C461FEF79CFD08B172B6FEE7FFF7FB
:10417000FFF828494FF48072A1F18C00FEF788FB0C
:1041800025494FF4FA72A1F54E70FEF756FB21480F
:1041900044380068016821F0040101601C221F49B5
:1041A0006846FCF7F5FB0021684600F0D7F81C4C88
:1041B0001A491C22A0601C3107A8FCF7E9FB00216A
:1041C00007A800F0CBF81549E0601C2238310EA892
:1041D000FCF7DEFB00210EA800F0C0F80F492061BB
:1041E0001C22543115A8FCF7D3FB002115A800F0C0
:1041F000B5F8606100F0ADF8FEE700000010024085
:104200000054004010010020A08601000038014049
:104210000048004090020020F404002030500008C4
:104220000000002001460020842900D0C81C7047EF
:1042300010B5FFF7C1F8FCF741FB024628A12E4854
:10424000FCF774F82C48FFF7D5F8642000F090FCD8
:104250002948FCF733FB01462748FCF7D3FBFFF75F
:10426000ABF8024625A12448FCF760F82248FFF786
:10427000C1F8642000F07CFCFFF7E8FD1E48FCF765
:104280001DFB01461C48FCF7BDFB1E48FCF716FB56
:1042900002461DA11848FCF749F81748FFF7AAF88D
:1042A000642000F065FC1748FFF7A4F8642000F0D4
:1042B0005FFC1BA0FFF79EF80F48FCF7FFFA0146D2
:1042C0000D48FCF79FFB642000F052FC1AA11C482B
:1042D000FFF79EFD08B1002010BD012010BD0000B9
:1042E00041542B434D515454544F5049433D302C6D
:1042F00025640D0A000000001004002025730D0A3B
:1043000000000000E806002041542B434D51545456
:104310005041594C4F41443D302C25640D0A00005A
:1043200041542B434D5154545055423D302C312C67
:1043300036300D0A000000004552524F5200000076
:10434000F404002010B500B9012000F011FC002099
:1043500010BD10B500F032FC002010BD7FB50D4639
:1043600004464169B0F9080081B1A16971B1FFF754
:1043700059FFD4E905128DE80700D4E900102B4657
:10438000226900F008FD039004B070BDFFF74AFFFA
:1043900003A9CDE90001208A2B4682B2D4E900109E
:1043A00000F0CCFC012801D00020EDE70398EBE7FA
:1043B00010B50A4C20706170100AA070E270180AE3
:1043C0002071637106212046FFF72AFDA071000AC3
:1043D000E0712046BDE8104000F052BAF90000201C
:1043E0002DE9F041184E0F46044675693068001DEE
:1043F00000F0FAFA38B9306890F82C1001208840A3
:10440000B1698143B161601C07D137B13168BDE842
:10441000F0410E48091D00F02BBB30682C44AC4223
:104420004460316805D2B068BDE8F041091D00F074
:1044300007BB7068091D00F003FB306B844200D29B
:104440003463BDE8F08100003C00002054120020DD
:104450002DE9F041054600F017FB284E3069401C5D
:1044600030613068264F10B1F06940B32DE03560FF
:104470003069012829D1002404EB840007EB800077
:1044800000F0D0FA641C072CF6D31D488C3000F0E5
:10449000C9FA1B48A03000F0C5FA1948B43000F042
:1044A000C1FA1748C83000F0BDFA1548DC3000F0FA
:1044B000B9FA13488C3070601430B06005E0306891
:1044C000E96AC06A884200D83560F06A0121401C60
:1044D000F062E86AB26981401143B16100EB80008B
:1044E00007EB8000291D00F0C3FA00F0EDFAF06937
:1044F000002800D03068BDE8F08100003C000020BA
:104500007811002010B5044690F8510058B10128E8
:104510000CD002280FD0502080F31188BFF34F8FAA
:10452000BFF36F8FFEE7206B00F0E2FA2046BDE894
:10453000104000F0DDBA10BD10484FF44061420752
:1045400006D0C01D0D4920F00700411AC1F5406199
:104550000B4A00230144C2E900030839103A21F054
:10456000070111604B600B600B1AC0E900139360E8
:104570004FF000405360D060704700006812002088
:1045800088000020114E124D4FF08057DFF8448014
:1045900011E000F079FAF068C468201D00F024FAF8
:1045A0002869401E2861E868401EE86000F08CFA27
:1045B0002046FFF7A7FFE8680028EAD1C8F8007096
:1045C000BFF34F8FBFF36F8FF5E70000401200205D
:1045D0003C00002004ED00E02DE9F0479A46DDE9BB
:1045E000098481466FF00303206B03EB82021044C1
:1045F000089D20F00706700707D0502080F311882F
:10460000BFF34F8FBFF36F8FFEE723180A5C83F869
:1046100034200A5C12B1401C1028F6D3002784F81D
:104620004370072D00D30625E562C4E91157201D0C
:1046300000F003FA04F1180000F0FFF92461C5F15D
:1046400007006462A061E76484F8507052464946EE
:10465000304600F0BFF82060B8F1000F01D0C8F874
:104660000040BDE8F087000030B5114900E0114678
:104670000A688242FBD34B685C18844203D14068CD
:1046800018444860084643681C18944209D1084CF5
:10469000103C2468A24209D052681A4442600A6859
:1046A00012680260814200D0086030BD0460F9E702
:1046B0008800002006484168096829B14168C96836
:1046C000C9684968016370474FF0FF31FAE700009D
:1046D0003C00002008484068401C4FF0500080F328
:1046E000118804D0BFF34F8FBFF36F8FFEE7BFF386
:1046F0004F8FBFF36F8FFEE7900000202DE9F04150
:104700000546002600F090FA314F386808B9FFF7E7
:1047100013FFF86805424BD1C5B3083568070ED0C2
:1047200005F00700C0F108000544680707D05020D5
:1047300080F31188BFF34F8FBFF36F8FFEE72DB368
:104740007868854234D8224910310846046801E06F
:10475000214604466068A84202D220680028F7D1AA
:104760003868844224D00E68206808606068083683
:10477000411B10290FD96019420708D0502080F33F
:104780001188BFF34F8FBFF36F8FFEE710E04160DA
:104790006560FFF769FF61687868401A7860BA68F9
:1047A000904200D2B860F86801430020C4E90001DB
:1047B00000F0CAFB700707D0502080F31188BFF3C8
:1047C0004F8FBFF36F8FFEE73046BDE8F0810000EA
:1047D0007800002010B5031F4FF080741C601B1F71
:1047E00021F001011960191F024B0B601439403888
:1047F0000A6010BDD54600082DE9F0410F46064677
:104800004FF4FA74904621461348FCF7FBF8304603
:10481000FCF754F882B265002B4631460F48FEF78C
:104820004FFB31460EA0FFF789FA404600F0A0F991
:104830002B46224608490948FEF7EAFA06490CA029
:10484000FFF77CFA39460448FCF702F8002800D04C
:104850000120BDE8F0810000F4040020BC0100202C
:104860005452414E534D49543A2025730A000000DA
:10487000524543454956453A2025730A0000000039
:1048800070B501220A4D0646D40321462846FDF79D
:10489000CBF94FF47A73082231460648FEF710FB35
:1048A00021462846BDE870400022FDF7BDB9000052
:1048B000001801400402002030B50546002431B143
:1048C000012906D0022906D003290ED105E0802057
:1048D00004E0C02002E0942000E0D420FFF78BFB2E
:1048E00003E01420FFF787FB641CAC42F9DB30BD0A
:1048F0002DE9F0410F4C104E0125207848B10027DA
:1049000001280ED0022810D0032806D1FFF7E4FAC0
:1049100005E0307818B102202070BDE8F0812570E4
:10492000FBE7FEF7E9FB307001E0FFF781FC277041
:10493000F3E70000010100200801002070B50C46DB
:10494000064600F0A1F8154D2868C06C80B92968AA
:10495000012081F850005CB101212046FFF740FDA5
:104960000F494FF080500860BFF34F8FBFF36F8F38
:1049700000F0AAF800F088F82868C46C002034B170
:1049800016B12968C86402E02A68611ED1642968EA
:1049900081F8500000F098F8204670BD3C000020DF
:1049A00004ED00E070B505460E46C0EBC50000EB17
:1049B00040010C4814220C1831462046FBF79DFF9D
:1049C00000280ED0204614223146FCF764F800205F
:1049D00020752946FFF770FF2046BDE87040FFF7BD
:1049E0003EBB70BD681E0020D0E9013201699A60AB
:1049F000D0E901235A604A68824201D182684A6044
:104A0000002202610868401E0860086870470000C4
:104A1000034B036003F1540008608020106070476E
:104A2000B80E002000F108014FF0FF32C0E901127A
:104A3000C160016100210160704700210161704780
:104A400030B50C68621C02D000F1080202E0026975
:104A500004E01A4653681D68A542FAD953684B60B2
:104A600099608A60516008610168491C016030BD2D
:104A700042684A6093688B609368596091600861EE
:104A80000168491C01607047502080F31188BFF312
:104A90004F8FBFF36F8F0A494868401C4860012858
:104AA0000CD10848006810F0FF0F07D0502080F3A9
:104AB0001188BFF34F8FBFF36F8FFEE77047000081
:104AC0009000002004ED00E00849486828B1401E2D
:104AD000486001D180F311887047502080F311881D
:104AE000BFF34F8FBFF36F8FFEE7000090000020F1
:104AF00070B5002827D0144DA0F108046068E9685B
:104B0000084207D1502080F31188BFF34F8FBFF3C5
:104B10006F8FFEE722683AB1502080F31188BFF30F
:104B20004F8FBFF36F8FFEE78843606000F07CF823
:104B300060686968084468602046FFF795FDBDE835
:104B4000704000F001BA70BD780000204FF0E02006
:104B500000210161816105494FF47A720968B1FB56
:104B6000F2F1491E416107210161704738000020C0
:104B700010B5020014D00F48806B38B1502080F37C
:104B80001188BFF34F8FBFF36F8FFEE700F04CF833
:104B900000211046FFF724FC00F0D6F9002807D1C9
:104BA00005494FF080500860BFF34F8FBFF36F8F00
:104BB00010BD00003C00002004ED00E010B586B000
:104BC0000024039405AA04A903A80494FFF720FF76
:104BD000DDE903010094CDE9011000230EA1104886
:104BE000059A00F0D8F80F490028486311D05020EA
:104BF00080F31188BFF34F8FBFF36F8F4FF0FF30FB
:104C000008630120C8614C6106B0BDE8104000F0A7
:104C100041B806B010BD000049444C4500000000FA
:104C2000854500083C0000200248816B491C8163D7
:104C3000704700003C000020144A906B10B1012026
:104C4000506270470020506290691149B0FA80F0BC
:104C5000C0F11F0000EB800051F820306BB101EB78
:104C6000800000F10803416849684160994201D120
:104C700049684160C86810607047502080F311880F
:104C8000BFF34F8FBFF36F8FFEE700003C000020A3
:104C9000781100201CB5264908780190FF20087083
:104CA00008788DF800009DF800009DF8002000F0C5
:104CB000F000904207D0502080F31188BFF34F8F4F
:104CC000BFF36F8FFEE79DF800001A4B00F0500015
:104CD00018700720986006E0401E98609DF800005C
:104CE00040008DF800009DF8000000069868F3D49D
:104CF000032807D0502080F31188BFF34F8FBFF3F4
:104D00006F8FFEE74FF440709860019808700A4872
:104D1000016841F470010160016841F07041016077
:104D2000FFF714FF00205860FBF778FA00201CBD45
:104D300000E400E09000002020ED00E02DE9FF5F9E
:104D40008346DDE90E87994616468A469000FFF7AE
:104D5000D5FC05001CD05420FFF7D0FC040014D073
:104D60000020256384F85100CDE90240CDE9008799
:104D70004B46324651465846FFF72EFC2046FFF779
:104D800067FB012004B0BDE8F09F2846FFF7B0FEA6
:104D90004FF0FF30F6E7F0B585B00546DDE90B04CE
:104DA0000A9EA8B1E4B1542700972063022084F83A
:104DB00051000020CDE9024004AF2846CDE900674C
:104DC000FFF70AFC2046FFF743FB049805B0F0BD4F
:104DD000502080F31188BFF34F8FBFF36F8FFEE732
:104DE000502080F31188BFF34F8FBFF36F8FFEE722
:104DF0002DE9F0411F4690460D46012690B104462C
:104E0000FFF742FE0FB1E06C386094F850000221C9
:104E100084F85010B8F1050F16D2DFE808F0150B32
:104E20000E141200502080F31188BFF34F8FBFF390
:104E30006F8FFEE7E16C294301E0E16C491CE164FE
:104E400002E0022803D0E564012802D01EE000261B
:104E50001CE0201DFFF7C8FD0F4DE06A0121AA6983
:104E600081401143A9610D4900EB800001EB8000F6
:104E7000211DFFF7FDFDA06A38B1502080F3118895
:104E8000BFF34F8FBFF36F8FFEE72868FFF71CFE5D
:104E90003046BDE8F08100003C0000207811002081
:104EA0002DE9F047264E4FF00009B06B28B1306A6B
:104EB000401C30624846BDE8F08775696D1C75611D
:104EC00013D17068006838B1502080F31188BFF3A7
:104ED0004F8FBFF36F8FFEE77068B1687160B0608D
:104EE000B06A401CB062FFF7E5FB306B8542E1D34E
:104EF000DFF8508001277068006838B17068C068BA
:104F0000C4686068854204D23063D3E74FF0FF3055
:104F1000FAE7201DFFF768FDA06A18B104F1180038
:104F2000FFF762FDE06AB26907FA00F11143B1616F
:104F300000EB800108EB8100211DFFF799FDDAE706
:104F40003C000020781100202DE9F047264D002478
:104F5000A146A86B38B1FFF797FDA86B401EA86368
:104F6000A86B40B13AE0502080F31188BFF34F8F17
:104F7000BFF36F8FFEE728691C4F012670B3A7F1BE
:104F8000B4083868E0B1F868C46804F11800FFF7A5
:104F90002BFD201DFFF728FDE06AAA6906FA00F143
:104FA0001143A96100EB800108EB8100211DFFF78F
:104FB0005FFDE06A2968C96A8842E2D36E62E0E771
:104FC0000CB1FFF777FB2C6A3CB1FFF769FF00B12A
:104FD0006E62641EF9D100202862686AFFF774FDD2
:104FE0004846BDE8F08700003C0000202C1200205D
:104FF00010B500290AD00878002807D00548784461
:10500000FBF774FD002801D0002010BD0248784451
:1050100010BD0000520300004A0300004842434113
:1050200042494E5F42445F3030315F564C000000D1
:105030000C53000835360008000000000000000096
:105040008000000000000000000000000453000881
:105050003D340008010000000000000000010000D5
:105060000000000000000000185300080D37000881
:1050700002000000000000008000000000000000AE
:1050800000000000205300088537000800000000E1
:105090000000000080000000000000000000000090
:1050A000010202030405060708090A0B0C0D0E0F86
:1050B00010100000000000000000010203040607B9
:1050C0000809000000000102030400C1814001C082
:1050D000804101C0804100C1814001C0804100C1C8
:1050E000814000C1814001C0804101C0804100C1B8
:1050F000814000C1814001C0804100C1814001C0A8
:10510000804101C0804100C1814001C0804100C197
:10511000814000C1814001C0804100C1814001C087
:10512000804101C0804100C1814000C1814001C077
:10513000804101C0804100C1814001C0804100C167
:10514000814000C1814001C0804101C0804100C157
:10515000814000C1814001C0804100C1814001C047
:10516000804101C0804100C1814000C1814001C037
:10517000804101C0804100C1814001C0804100C127
:10518000814000C1814001C0804100C1814001C017
:10519000804101C0804100C1814001C0804100C107
:1051A000814000C1814001C0804101C0804100C1F7
:1051B000814000C1814001C0804100C1814001C0E7
:1051C000804101C0804100C1814000C0C101C303D2
:1051D00002C2C60607C705C5C404CC0C0DCD0FCF4F
:1051E000CE0E0ACACB0BC90908C8D81819D91BDBBF
:1051F000DA1A1EDEDF1FDD1D1CDC14D4D515D7170F
:1052000016D6D21213D311D1D010F03031F133F3BE
:10521000F23236F6F737F53534F43CFCFD3DFF3F0E
:105220003EFEFA3A3BFB39F9F83828E8E929EB2B3E
:105230002AEAEE2E2FEF2DEDEC2CE42425E527E7CE
:10524000E62622E2E323E12120E0A06061A163A33E
:10525000A26266A6A767A56564A46CACAD6DAF6FCE
:105260006EAEAA6A6BAB69A9A86878B8B979BB7B3E
:105270007ABABE7E7FBF7DBDBC7CB47475B577B78E
:10528000B67672B2B373B17170B0509091519353BE
:10529000529296565797559594549C5C5D9D5F9F8E
:1052A0009E5E5A9A9B5B99595898884849894B8BBE
:1052B0008A4A4E8E8F4F8D4D4C8C4484854587474E
:1052C00046868242438341818040303132333435D7
:1052D0003637383941424344454640305800303132
:1052E000323334353637383961626364656640304D
:1052F0007800040000080000000000000002000127
:10530000000010004C63645461736B004D6F646265
:1053100075735461736B00005461736B53696D0056
:1053200053746174656D616368696E65546173007F
:105330006054000800000020100100006C0100080B
:105340007055000810010020982500008801000811
:105350001001000043000000F8FFFFFF0040404044
:105360004040404040404141414141404040404038
:1053700040404040404040404040404040050202E4
:1053800002020202020202020202020202202020A3
:1053900020202020202020020202020202029090FF
:1053A00090909090101010101010101010101010FD
:1053B0001010101010101010020202020202888851
:1053C000888888880808080808080808080808085D
:1053D0000808080808080808020202024000000045
:1053E00000000000000000000000000000000000BD
:1053F00000000000000000000000000000000000AD
:10540000000000000000000000000000000000009C
:10541000000000000000000000000000000000008C
:10542000000000000000000000000000000000007C
:10543000000000000000000000000000000000006C
:10544000000000000000000000000000000000005C
:10545000000000000000000000000000000000004C
:10546000000000000000000000000000000000003C
:10547000000000000000000000000000000000002C
:105480003039363732323133343600000100000013
:1054900010000000000000000024F40000000000E4
:1054A00000000000000000000000000000000000FC
:1054B00000000000000000000000000000000000EC
:1054C00000000000000000000000000000000000DC
:1054D00000000000000000000000000000000000CC
:1054E00000000000000000000000000000000000BC
:1054F00000000000AAAAAAAA000000000000000004
:10550000000000000000000000000000000000009B
:105510000000000000000000000061626364656636
:105520006768696A6B6C6D6E6F7071727374757693
:105530007778797A4142434445464748494A4B4C3B
:105540004D4E4F505152535455565758595A303169
:10555000323334353637383900000000000000009F
:105560000000001E0100000000000000000000001C
:0400000508000131BD
:00000001FF
